S013000061345F635F636F64696E672E73726563E7
S113000071C000008EC000008CC000008AC00000D7
S113001088C0000086C0000084C0000082C00000C8
S113002080C000007EC000007CC000007AC00000D8
S113003078C0000076C0000074C0000072C00000E8
S113004070C000006FC000006CC000006AC00000F7
S113005068C0000066C0000064C0000062C0000008
S113006060C000005EC000005CC000005AC0000018
S113007058C0000056C0000054C0000052C0000028
S113008076C000004EC000004CC000004AC0000012
S113009048C0000046C0000044C0000042C0000048
S11300A040C000003EC000003CC000003AC0000058
S11300B038C0000036C0000034C0000032C0000068
S11300C030C000002EC000002CC000002AC0000078
S11300D028C0000026C0000024C0000022C0000088
S11300E020C0000011241FBECFEFD1E2DEBFCDBF80
S11300F000E00CBF12E0A0E0B2E0E2EBF3E000E0CD
S11301000BBF02C007900D92A030B107D9F722E0CF
S1130110A0E0B2E001C01D92A830B207E1F714D10B
S113012046C16ECF1F920F920FB60F9211248F9378
S11301309F93AF93BF938091040290910502A09185
S11301400602B09107020196A11DB11D809304021D
S113015090930502A0930602B0930702BF91AF915A
S11301609F918F910F900FBE0F901F9018951F9223
S11301700F920FB60F9211248F939F93AF93BF9357
S11301808091000290910102A0910202B0910302B9
S11301900596A11DB11D8093000290930102A093C6
S11301A00202B0930302BF91AF919F918F910F9080
S11301B00FBE0F901F9018959FEF90930A0188230C
S11301C041F0813041F0823041F08330A9F482E083
S11301D005C080E803C080E201C088E0662331F0F6
S11301E0EBE0F1E09081892B80830895EBE0F1E06E
S11301F090818095892380830895B82E00E010E0D3
S1130200C0E0D0E0C12CD12C99249394A12C0F2EC2
S1130210FBE0EF2EFF24F394F02DC43F21E0D2073E
S11302202CF4DD23F4F001151105C1F480910002D2
S113023090910102A0910202B09103020697A105D8
S1130240B1053CF121971092000210920102109224
S11302500202109203020C2D1D2D20C00130110545
S1130260E9F48091000290910102A0910202B09100
S113027003020697A105B1057CF0219610920002B5
S1130280109201021092020210920302092D1A2DFB
S113029005C00C2D1D2D02C0092D1A2DF7018081DA
S11302A090E0409104025091050260910602709121
S11302B007022E010D2E000C66087708441555051B
S11302C06605770534F4892B89F561E08B2D74DF9D
S11302D0A4CF4091040250910502609106027091EE
S11302E00702443F51406105710534F4892B21F024
S11302F060E08B2D61DF91CF809104029091050223
S1130300A0910602B0910702853F9140A105B10575
S11303100CF483CF1092040210920502109206028C
S11303201092070261E08B2D47DF77CF80910402A2
S113033090910502A0910602B0910702843F91407A
S1130340A105B105CCF6D4CFF89482E090E0909367
S113035089008093880010928000E1E8F0E0108228
S113036080818860808380818260808380818160D5
S11303708083EFE6F0E080818260808384EC99E002
S1130380909399008093980010929000E1E9F0E036
S11303901082808188608083808182608083E1E72D
S11303A0F0E0808182608083789483E026DFF89493
S10503B0FFCF79
S9030000FC
