:020000020000FC
:040000000C94040256
:040044000C94D30243
:1000A8000C9409030E943B0102E00F9300E00F93B8
:1000B80003E00F930AEF0F930E94E4010F910F9151
:1000C8000F910F9102E00F9300E00F930E94F1004F
:1000D8000F910F910C946E000C9470000F932F9356
:1000E8003F93009132000F7D24FD0062009334009D
:1000F80000912C00077F25FD086000932E000091D9
:100108000001077F26FD08600093020100910001AD
:100118000F7E27FD00610093020100910001006439
:100128000093020131E00E94C001009100010F7BA1
:10013800009302013F912F910F9108952F933F93C0
:100148000F93DF93CF93DEB7CDB729850E94720056
:1001580032E30E94C00122950E94720032E30E949D
:10016800C001CF91DF910F913F912F9108950F9387
:100178003F932F93DF93CF93DEB7CDB729850091B7
:1001880000010F7D009302012F930E94A2002F917E
:10019800243018F432E00E94CA01CF91DF912F91E8
:1001A8003F910F9108950F932F93DF93CF93DEB76D
:1001B800CDB72885009100010062009302012F93BA
:1001C8000E94A2002F91009122020395009322021F
:1001D800CF91DF912F910F9108950F931F93DF9384
:1001E800CF93FF93EF93DEB7CDB7FB85EA851191E7
:1001F800103029F01F930E94D7001F91F8CFEF917C
:10020800FF91CF91DF911F910F9108950F931F9345
:10021800DF93CF93DEB7CDB70885198511301CF071
:1002280011E00C941A010F300CF00FE0109321022A
:1002380000932202113019F410EC0C94240110E8F8
:10024800010F0F930E94BB000F91CF91DF911F9177
:100258000F9108950F9301E00F930E94BB000F9137
:10026800002700932102009322020F9108950F9313
:100278002F933F9300913300006200933300009165
:1002880032000F7D0093340000912D000860009328
:100298002D0000912C00077F00932E000091010192
:1002A80008600093010100910001077F009302019B
:1002B80000910101006100930101009100010F7E8E
:1002C8000093020100910101006200930101009175
:1002D80000010F7D00930201009101010064009369
:1002E8000101009100010F7B009302013FE00E9491
:1002F800CA0135E00E94CA0120E30E94720035E07D
:100308000E94CA0120E30E94720057E03FE00E9469
:10031800CA015A95D9F720E30E94720032E30E947D
:10032800C00120E20E94720032E30E94C00108E28C
:100338000F930E94BB000F9108E00F930E94BB002F
:100348000F9101E00F930E94BB000F9132E00E94D1
:10035800CA0106E00F930E94BB000F910CE00F93B7
:100368000E94BB000F9100270093210200932202F4
:100378003F912F910F9108950F933F9305E00A95B0
:10038800F1F73A95D9F73F910F9108950F931F937D
:100398003F93DF93CF930DEF309F012D0295007FA0
:1003A800D02F002D0295102F007F1F70C02FD12B4A
:1003B8002197F1F7CF91DF913F911F910F91089508
:1003C8000F93FF93EF93BF93AF93DF93CF93DEB772
:1003D800CDB7EB85FC85AD85BE85059100300D93C5
:1003E800E1F7CF91DF91AF91BF91EF91FF910F911D
:1003F800089548656C6C6F2C20576F726C642100EF
:1004080002E3902E00E0802E00EB202E00E0302E3C
:1004180000E6402E01E0502E0BE2602E02E0702E26
:1004280026DF07E800937A0000E400937C0010E0E0
:100438000CE910938900009388000027009380003E
:100448000DE00093810002E000936F0016E00BE1DD
:1004580010939900009398000027009390000DE0F6
:10046800009391001EE105E81093A9000093A800ED
:1004780000270093A0000DE00093A10002E0009384
:100488007200789408B301FFFDCF02E008BBA09189
:100498002302A13061F001E01FE00F931F93B6DE45
:1004A8001F910F910DE20F937EDE0F91EBCF01E0CC
:1004B8001FE00F931F93AADE1F910F910AE20F937B
:1004C80072DE0F91D0912402D23041F0D33039F04E
:1004D800D430E9F0D53099F10C94460248C001E0D7
:1004E80010E00F931F9392DE1F910F910CE40F936E
:1004F8005ADE0F9100E20F9356DE0F9100E20F9340
:1005080052DE0F9100E20F934EDE0F91BBCF01E058
:1005180010E00F931F937ADE1F910F9100E20F9363
:1005280042DE0F9104E40F933EDE0F9100E20F9339
:100538003ADE0F9100E20F9336DE0F91A3CF01E070
:1005480010E00F931F9362DE1F910F9100E20F934B
:100558002ADE0F9100E20F9326DE0F9105E50F9337
:1005680022DE0F9100E20F931EDE0F918BCF01E088
:1005780010E00F931F934ADE1F910F9100E20F9333
:1005880012DE0F9100E20F930EDE0F9100E20F933F
:100598000ADE0F9102E50F9306DE0F9173CF0091EB
:1005A8007A00006400937A0000917A000074E1F701
:1005B800809178009091790077278615970520F427
:1005C800B1E0B093230204C0B0E0B09323021895C1
:1005D8008615970548F48415950550F482159305FA
:1005E80058F48915980560F4C2E0C0932402189560
:1005F800C3E0C09324021895C4E0C0932402189560
:10060800C5E0C09324021895FFCF1895131729F059
:1006180091E008F007C09FEF05C09927021711F075
:1006280091E0C8F3089530313233343536373839EC
:080638006162636465665F0006
:00000001FF
