:020000020000FC
:100000000FEF0DBF11E21EBF2FEF20930A0124B99D
:100010005DC00FEF65D004D1002762D001D108E3A5
:100020005FD005D100275CD0FBD001E259D0F8D0D9
:10003000002756D054C01AE27BD015E179D01AE2DD
:1000400077D015E175D0ECD0EBD01AE27ED015E177
:100050007CD01AE27AD015E178D01AE276D015E198
:1000600074D01AE272D015E170D039C008EF0F9346
:1000700079D00F910CED0F9375D00F9140E24F9313
:1000800071D04F914695D9F72AC051E55F9385D03D
:100090005F919F9367D09F91C3D055E55F937DD0CB
:1000A0005F919F935FD09F91BBD059E45F9375D0D0
:1000B0005F919F9357D09F91B3D053E45F936DD0DE
:1000C0005F919F934FD09F91ABD009C09CE088EE89
:1000D00096D00E9410019CE088EE91D000C0FFCF26
:1000E0001F932F933F934F935F936F937F938F93C0
:1000F00010E020E032E048E052E068E070E280E8A2
:1001000005FD130F04FD140F03FD250F02FD260F3F
:1001100001FD270F00FD280F15B920930B018F91CA
:100120007F916F915F914F913F912F911F91089512
:100130000F931F93012F0E9470000E94100100E096
:100140000E9470001F910F9108950F931F93012F2C
:100150000E9470000E94170100E00E9470001F9131
:100160000F9108950F931F93CF93DF933F93CDB7D4
:10017000DEB72985122F022F30EC3223303C21F0DC
:100180000E94A5000C94C7000E94980000C03F91F7
:10019000DF91CF911F910F910895FF93EF932F93CC
:1001A0000F93CF93DF931F93CDB7DEB72B8590E0EE
:1001B000FCE0E0E004910D32D1F0201719F0389600
:1001C0000491F9CF0591013039F0023049F00E3237
:1001D00049F00F3649F0F6CF9695906C0C94F700E5
:1001E000969505C0990FEECF9395990FEBCF1F9180
:1001F000DF91CF910F912F91EF91FF910895E82F0B
:10020000F92F6491603059F06F93C7DF6F919F931E
:10021000A9DF9F910CD00BD031966491F3CF089554
:100220000F930EE00BD00A95E9F70F9108950F9305
:1002300004E004D00A95E9F70F91089501D00895DC
:100240000F931F932F9308E00A9539F01FEF1A952B
:10025000D9F32FEF2A95D9F3FDCF2F911F910F914D
:020260000895FF
:100C0000412E2E6F6F2E2E01422E6F2E2E6F2E0232
:100C1000436F2E6F2E2E2E01442E2E2E2E2E6F0160
:100C2000456F6F6F6F6F6F01462E6F6F6F6F2E0284
:100C3000476F6F2E2E6F6F02482E2E6F6F2E2E0273
:100C4000492E6F2E2E6F2E014A2E2E2E2E2E6F0223
:100C50004B2E2E2E2E6F6F024C6F2E6F2E6F2E018D
:100C60004D6F6F6F6F6F6F024E6F6F2E2E2E2E01B6
:100C70004F2E6F6F6F6F2E01506F2E6F6F2E6F01A3
:100C8000516F2E6F6F2E6F02526F6F2E2E6F6F018E
:100C9000532E2E2E2E6F6F01542E2E6F6F2E2E017F
:100CA000556F2E2E2E2E2E01566F2E6F2E6F2E026A
:100CB000576F2E6F2E2E2E02576F6F2E2E2E2E0256
:100CC000592E2E6F6F2E2E025A6F2E2E2E2E2E0282
:100CD0002D6F2E2E2E6F6F0148454C4C4F574F52A3
:100CE0004C44000054484500515549434B00425282
:100CF0004F574E00464F58004A554D50454400004E
:100D00004F5645520000544845004C415A59000086
:040D1000444F470005
:00000001FF
